:020000040800F2
:1000000080430010796A0008E5620008E762000892
:10001000E9620008EB620008ED62000800000000E1
:10002000000000000000000000000000EF62000877
:10003000F1620008000000008B1C0008711A000823
:10004000ED6A0008F16A0008F56A0008F96A00081C
:10005000FD6A0008016B0008056B0008096B0008C9
:100060000D6B0008116B0008156B0008196B000878
:100070001D6B0008216B0008256B0008296B000828
:100080002D6B0008316B0008356B0008396B0008D8
:100090003D6B0008416B0008456B0008496B000888
:1000A0004D6B0008516B0008556B0008596B000838
:1000B0005D6B0008616B0008656B0008696B0008E8
:1000C0006D6B0008716B0008756B0008796B000898
:1000D0007D6B0008816B0008856B0008896B000848
:1000E0008D6B0008916B0008956B0008996B0008F8
:1000F0009D6B0008A16B0008A56B0008A96B0008A8
:10010000AD6B0008B16B0008B56B0008B96B000857
:10011000BD6B0008C16B0008C56B0008C96B000807
:100120002F450008CD6B0008D16B0008D56B000887
:10013000D96B0008F5650008DD6B0008E16B00086D
:10014000E56B0008E96B0008ED6B0008F16B000837
:10015000F56B0008F96B0008FD6B0008016C0008E6
:10016000056C0008096C0008CB620008B962000841
:1001700085620008A76200080D6C0008116C000879
:10018000156C0008196C000800215FF0FF32C3688D
:100190005A607FF08042C3685A6151F0004151F4C7
:1001A0000061C0688161704770B582B004000025AD
:1001B000002600200090032000F017FEE068006990
:1001C0000090761CBB48864216D20098C00F0028CB
:1001D000F1D00026009850F0010000900098E168EE
:1001E0000861E06800690090761CB248864205D23A
:1001F0000098C007F5D401E0002004E0032000F0DF
:10020000F4FD2800C0B276BD70B405000020EC7883
:10021000002C13D1002400269BB2DB1C042493FB8A
:10022000F4F4D2B205EB8202D2F8D020002603E02B
:100230000B681360091D761CA642F9D3C0B270BCCE
:10024000704710B4002392B2D21C042392FBF3F245
:10025000D0F8D000002303E004680C60091D5B1C8B
:100260009342F9D3080010BC704730B40023002239
:100270000024C4700124847040248480C9B2012900
:100280000DD15FF0A0430121C1720821017004214A
:1002900041704FF4A071C180022101720EE0C9B219
:1002A00000290BD1844B0021C1720C210170062161
:1002B00041704FF4A061C18001210172C36013F548
:1002C0000061016100210EE013EB411414F510648C
:1002D00000EB8105AC6113EB411414F5306400EBC5
:1002E00081056C65491C4478A142EDD313F580610A
:1002F000416113F58861C0F8CC10002108E013EBD0
:10030000411414F5A06400EB8105C5F89040491C28
:100310000478A142F3D300210AE04FF4805404FB97
:10032000013414F5805400EB8105C5F8D040491C18
:100330000478A142F1D313F56063C0F80C311000CA
:10034000C0B230BC704770B5040000250020002109
:100350000026207A012825D1E068816B31F48031B4
:10036000607A002801D051F48011E0688163002098
:10037000E068C06830F0400030F4800030F40030B5
:1003800030F40020E168C8602000FFF70DFFE0783E
:10039000012821D1052060F3440656F02006E068CC
:1003A000866019E0E068C06850F04000E168C8600D
:1003B0002000FFF7F9FE002151F4803151F4802133
:1003C00051F40021607A002801D051F48011E068D6
:1003D0008163142000F014FDE078012808D1E06862
:1003E0008668052060F3440656F02006E0688660C3
:1003F0002800C0B270BD01000020002252F00102AE
:10040000CB689B681A43C9688A60C0B27047010014
:100410000020002252F00102CB689B6833EA0202FE
:10042000C9688A60C0B2704710B582B0020000246B
:10043000002300200090009850F0200000900098C9
:1004400061F38A1000900098D1680861D068006953
:1004500000905B1C1748834205D20098C0F34010FF
:100460000028F3D1FFE7032000F0BFFC2000C0B25A
:1004700016BD10B582B001000024002200200090BB
:10048000009850F0100000900098CB681861C86880
:1004900000690090521C0748824205D20098C0F3C0
:1004A00000100028F3D1FFE7032000F09EFC20009D
:1004B000C0B216BD410D03000000044010B5002479
:1004C000C268D26832F0005232F08042C9B20129CB
:1004D00002D152F0005204E0C9B2002901D152F019
:1004E0008042C068C260322000F08AFC2000C0B2A6
:1004F00010BDC068406910F00100704780B5FFF77B
:10050000F8FF012801D0012000E00020C0B202BDA8
:1005100001000020C8684069C968896908407047BF
:1005200002691268C9B261F3010200690260704792
:10053000F8B5040000250020002000260027002038
:100540000020D4F80C1108602069006830F4C05015
:1005500021690860E07A002845D1207A012804D179
:1005600000212000FFF7DCFF03E001212000FFF75E
:10057000D7FF4FF40070E1684862402060F31F46E7
:100580004FF4007060F30F06E068866216EB1646C3
:1005900066F30F074FF4BA7060F31F47E068C0F8C6
:1005A000047117EB1740C0EA0707402060F31F47AC
:1005B000E068C0F8087117EB1740C0EA0707BFB240
:1005C000E068C0F80C7117EB1740C0EA0707BFB22C
:1005D000E068C0F8107117EB1740C0EA0707BFB218
:1005E000E068C0F8147110212000FFF71DFF200003
:1005F000FFF73FFF00202169086100202169486161
:100600005FF0FF302169886100202169C861002105
:100610001CE000200BE004EB810080690068C00F43
:100620000028F6D0002050F0804050F0006004EB2D
:1006300081029269106004EB8100806900220261EE
:1006400004EB81008069FF228260491C607881424E
:10065000E1D300211CE000200BE004EB8100406DA1
:100660000068C00F0028F6D0002050F0804050F005
:10067000006004EB8102526D106004EB8100406D5C
:100680000022026104EB8100406DFF228260491C60
:1006900060788142E1D3002050F4807021690969BB
:1006A0008143084321690861E07801280ED10020C8
:1006B00050F0010050F00200402161F38A0050F434
:1006C0008030402161F3594021690863200000F027
:1006D00003F82800C0B2F2BD70B504000025002662
:1006E0000020E16888617FF08040E1684861200077
:1006F000FFF74AFDE078002801D156F0100656F4C5
:10070000006656F4805656F4005656F4802656F489
:10071000002656F0080656F4801656F4001656F0D9
:10072000804656F00406E0688069B0430643E068FE
:1007300086612800C0B270BD010000200869806891
:10074000400810F00300002805D0022807D004D389
:10075000032802D005E0032004E0022002E001208B
:1007600000E00220C0B2704710B401000020002455
:100770000A6992688B691B68520812F00302002A0A
:1007800004D0022A05D001D3032A06D1DB0ADB02FA
:1007900005E0032262F30A0301E0DB0ADB028A6957
:1007A000136054F480740A695268A24314430969BF
:1007B0004C60C0B210BC704770B40A000021002524
:1007C00000245378012B0BD1137800EB83039E692F
:1007D000012592F9003015FA03F363F30F040AE0E0
:1007E000137800EB83035E6D012592F9003015FA52
:1007F00003F363F31F443568C5F3C033002B0DD1F9
:10080000936863F30A05D37863F39345D38863F35E
:10081000995555F0805555F4004535601278012AF8
:1008200008D1C27A002A05D10269D26B144300694B
:10083000C46304E00269D26914430069C46108001A
:10084000C0B270BC7047F0B40A000021002400233D
:100850005578012D0BD1157800EB8505AD69012781
:1008600092F9006017FA06F666F30F030AE01578AE
:1008700000EB85056D6D012792F9006017FA06F609
:1008800066F31F4334F400442C601278012A09D126
:10089000C27A002A06D10269D26B32EA03030069E8
:1008A000C36305E00269D26932EA03030069C361E8
:1008B0000800C0B2F0BC704770B5002400220023CD
:1008C00000254A78012A62D10A7800EB82029269F7
:1008D00013680A7800EB8202926915694A69002A56
:1008E00005D1ED0CED04012262F3DC4511E04A690B
:1008F00062F312054E698A689619761E8A68B6FBFD
:10090000F2F262F3DC45CA78012A02D1012262F3D5
:100910005E750A7800EB820292691561C278012A3D
:1009200006D10A7800EB820292690D6955610FE0E9
:10093000CA78012A0CD04A69002A09D0012591F908
:10094000002015FA02F205696D6B2A4305696A6396
:10095000CA78012A08D102699268D20502D453F0FC
:10096000005301E053F0805353F0806353F0004391
:100970000A7800EB820292691360CA78012A4ED18C
:100980004B699BB20A78C968FFF73EFC47E00A78DA
:1009900000EB8202526D13680A7800EB8202526DFE
:1009A00015694A69002A06D18A6862F31205012294
:1009B00062F3DC4511E04E698A689619761E8A68F2
:1009C000B6FBF2F262F3DC45C5F3C9468A685643CA
:1009D00066F312056A03520B4A610A7800EB820241
:1009E000526D1561C278012A05D10A7800EB8202A6
:1009F000526D0D695561CA78012A07D14A79002ADA
:100A000002D053F0005301E053F0805353F0806361
:100A100053F00043097800EB8100406D0360200033
:100A2000C0B270BDF0B40A000021002400250026E9
:100A30005378012B3AD187693D683E695369002B91
:100A400004D1F609F60156F400260FE09368D2F8B7
:100A500014C0634505D293685361936863F3060637
:100A600002E0536963F3060656F400263E61C3783C
:100A7000012B05D1137800EB83039B6916695E6136
:100A800055F0806555F000453D60C378002B3ED1A0
:100A90005369002B3BD0012392F9002093401C4363
:100AA0000269526B14430069446330E0137800EB31
:100AB00083035B6D1D68137800EB83035B6D1E6918
:100AC0005369002B05D1936863F3060656F400269C
:100AD00006E093685361936863F3060656F40026B4
:100AE000137800EB83035B6D1E61C378012B05D186
:100AF000137800EB83035B6D14695C6155F08065CE
:100B000055F00045127800EB8200406D056008004A
:100B1000C0B2F0BC70470200002000234B78012BCC
:100B20000ED1097802EB81018A6913681900C90F97
:100B3000002901D053F0804353F40013136007E001
:100B4000097802EB81014A6D136853F400131360B6
:100B5000C0B2704710B40200002000234B78012B74
:100B600004D10B7802EB8302926903E00B7802EB6D
:100B70008302526D136833F40013CC78032C02D037
:100B8000C978022901D153F080531360C0B210BC60
:100B900070470100086980690969C9690840000C4B
:100BA00070470200C9B202EB8100406D8068116994
:100BB0004969084070470100086980690969C96985
:100BC000084080B27047002151F0C04151F400212B
:100BD000182262F30601426D1161C17801290CD11E
:100BE000002100F2CC51426D5161416D096851F014
:100BF00000415FF08021406D01607047817A0029DB
:100C00000DD001698968C90709D5D0F80C110968A8
:100C100031F0020149084900D0F80C010160704729
:100C200000B583B0012140F2871000F05FF90A227D
:100C300003214B4800F0CCF90A220521484800F076
:100C4000C7F90A220021474800F0C2F90A2201210F
:100C5000444800F0BDF90A220521424800F0B8F9E5
:100C60000A220A213F4800F0B3F90A220B213D482D
:100C700000F0AEF90A220C213A4800F0A9F90A2244
:100C80000D21384800F0A4F90A220421364800F06A
:100C90009FF90A220B21354800F09AF90A22002117
:100CA000334800F095F92020009003208DF80500CE
:100CB00002208DF804006946294800F037F9082021
:100CC000009003208DF8050002208DF8040000201C
:100CD0008DF8060000208DF807006946204800F0D6
:100CE00025F943F62340009003208DF805000220EB
:100CF0008DF8040000208DF8060000208DF8070014
:100D00006946184800F012F90120009003208DF880
:100D1000050002208DF804006946154800F006F928
:100D20001020009003208DF8050002208DF80400AB
:100D300069460D4800F0FAF84FF400600090032077
:100D40008DF8050002208DF804006946074800F080
:100D5000EDF801215FF0C04000F0C8F807BD0000C9
:100D60000000024000040240001C0240002002403B
:100D70000008024080B54FF4C06000F055F94D20E6
:100D80008DF8000001208DF8010003208DF802008D
:100D900001208DF80300684600F04BF94FF4C06065
:100DA00000F042F94A208DF8000001208DF8010082
:100DB00002208DF8020001208DF80300684600F043
:100DC00038F94FF4C06000F02FF94B208DF8000087
:100DD00001208DF8010001208DF8020001208DF81E
:100DE0000300684600F025F901BD00227821484340
:100DF0000721B0FBF1F0FFE7521C9042FCD2704794
:100E000080B54FF47A714843FFF7EFFF01BD010051
:100E1000002100210022022100210222DFF8F4102B
:100E2000096811F00C01002904D0042906D0082912
:100E300008D033E0DFF8E410016032E0DFF8E010C2
:100E400001602EE0DFF8D0100968C1F38051DFF8AF
:100E5000C820126812F03F0200290AD0DFF8C01043
:100E6000B1FBF2F2DFF8B0100968C1F388114A4310
:100E700009E0DFF8A810B1FBF2F2DFF89C10096876
:100E8000C1F388114A43DFF890100968C1F30141AA
:100E9000491C4900B2FBF1F1016002E0DFF87C106F
:100EA0000160DFF87010096811F0F0010909DFF83E
:100EB0007420515C0268CA404260DFF8581009682B
:100EC00011F4E051890ADFF85C20515C4268CA40A5
:100ED0008260DFF84010096811F46041490BDFF8C7
:100EE0004420515C4268CA40C2607047C9B20029C0
:100EF00007D0DFF8341009680843DFF82C100860C9
:100F000007E0DFF82410096831EA0000DFF8181064
:100F10000860704708380240043802400024F4009A
:100F200000127A00280A00203038024030B4002332
:100F300000220024002347E001229A400C6814405C
:100F4000944240D1046803251A00D2B25200954061
:100F5000AC43046004680D791A00D2B25200954087
:100F60002C4304600A79012A02D00A79022A1AD194
:100F7000846803251A00D2B252009540AC438460C5
:100F800084684D791A00D2B2520095402C43846097
:100F9000426801249C40A243426042688C799C4094
:100FA000A4B222434260C46803251A00D2B25200A0
:100FB0009540AC43C460C468CD791A00D2B25200E7
:100FC00095402C43C4605B1C102BB5D330BC7047DC
:100FD00070B400230023D2B211F00703DBB29B00F0
:100FE0009A40130089B20A00D21000EB820489B241
:100FF0000A00D21000EB8202156A0F2611F00702D8
:10100000D2B292009640B543256289B20A00D2104E
:1010100000EB8202126A134389B2C91000EB81000F
:10102000036270BC704701002449084324490860EA
:10103000704710B4002100220F23C178002920D06E
:101040001F49096811F4E061D1F5E061090AD1F1A5
:101050000402DBB20B414478110014FA01F18278EA
:10106000134019430901174A0378D154012102782A
:1010700012F01F029140144A0078401142F82010EB
:1010800009E00121027812F01F0291400F4A007816
:10109000401142F8201010BC7047042806D10C48BB
:1010A000006850F004000A49086005E0084800683C
:1010B00030F0040006490860704700000000FA059F
:1010C0000CED00E000E400E000E100E080E100E081
:1010D00010E000E080B500F06BFC00F02CFA00F0AE
:1010E00051FA00F0ACFA00F0F2F900F0F7FC00F071
:1010F00069FA00F085FA00F06EFC00F019FD01BD00
:10110000DFF83C08007801280BD1DFF8B80600783A
:10111000FF2806D0DFF8AC060078401CDFF8A416E4
:101120000870704710B50024DFF814080078012813
:1011300041D100F089FD0400DFF88806007800281E
:1011400006D0DFF880060078401EDFF878160870B9
:10115000DFF87006007800282AD1DFF86C060078E6
:10116000002825D100F0D7FADFF8D807DFF8D81724
:10117000097850F82100DFF8D4170860DFF8C807B5
:101180000078DFF8CC170978884211D0DFF8BC0767
:101190000068406B401CDFF8B41709684863DFF84B
:1011A000B4070068401CDFF8AC17086000F069FD68
:1011B000200000F04DFD10BD80B5DFF884070078F9
:1011C000002819D100F0A7FADFF87C070078DFF8D3
:1011D00080170870DFF86C07DFF86C17097850F893
:1011E0002100DFF868170860DFF860070068DFF8A3
:1011F0004817086000F02FFD01BD80B500200220D7
:1012000000F080FD00F020FD0021DFF84C27116088
:1012100000F01EFD322000F075FD00F015FDDFF836
:1012200038170968DFF8342711600121DFF830270B
:10123000117000F00DFD01BD10B5002000F017FC8D
:1012400000F002FDDFF81C170968491CDFF81427BD
:10125000116000F0FDFCDFF8E806007801285CD1A1
:10126000DFF804070078002803D0022805D002D355
:1012700009E001200CE000200AE001200121DFF854
:10128000E826117004E001200021DFF8DC2611704F
:10129000C0B2002841D0DFF8D406046839E000214C
:1012A00084F82D1018E000F0CFFCA16A00292DD0A1
:1012B000A16A491EA162A16A002927D194F82C10C5
:1012C00011F0370FEBD094F82C1011F0C80184F80E
:1012D0002C10012184F82D1094F82C10090715D436
:1012E000DFF88C160A7894F832100A43DFF880167B
:1012F0000A70DFF8801694F830208A5C94F8311078
:101300000A43DFF8701694F83030CA54646900F06C
:101310009FFC94F82E001F28C5D110BD7047F8B56A
:101320000400DFF85406A57A475DDFF84C06FFB2EB
:1013300004EB0705ED7A405DFFB2FD0055FA80F53C
:10134000DFF80006EDB250F825600020B06271624F
:1013500096F82C0030EA020286F82C2086F82D3010
:1013600096F82C00000713D4DFF80406017896F8ED
:1013700032000143DFF8F8050170DFF8F805FFB22D
:10138000C15D96F831000143DFF8E805FFB2C155B1
:101390002100300000F051F8306A002804D0316A92
:1013A000300000F065F8F4612800C0B2F2BDDFF84B
:1013B00088150968C861DFF88015096891F8301050
:1013C0000144CA7ADFF87015096891F831100A43B0
:1013D000DFF86415096891F830100144CA72827A06
:1013E000DFF85415096891F832100A438272DFF869
:1013F0004805006890F83010DFF87805C9B2425C03
:10140000DFF83405006890F831008243DFF86405A6
:10141000C9B24254DFF85C05C9B2405C00280BD168
:10142000DFF84C050178DFF81005006890F832000D
:101430008143DFF83C050170704710B490F83030FC
:10144000DBB201EB0302D47A90F831209443DBB293
:1014500001EB0302D472DBB201EB0302D27A002A61
:1014600004D18A7A90F8320082438A7210BC7047A5
:1014700070B490F8303090F8324090F831500A68EB
:1014800013E0DBB202EB0300C07AA843DBB202EB4D
:101490000306F072DBB202EB0300C07A002802D12F
:1014A000907AA0439072091D0A68002AE9D170BCA5
:1014B000704700218172002105E00022C9B200EBD3
:1014C0000103DA72491CC9B20429F6D3704710B57A
:1014D0004FF4A061DFF8A40400F0E6F8002114E066
:1014E0004A1CDFF8980489B2142303FB01F3034478
:1014F000DFF8884492B21420424304EB0200002239
:101500001A70586092A01861491C89B23F29E7D32C
:10151000DFF8682489B21420414302EB0103002064
:101520001870002058608AA01861DFF85004DFF8B6
:101530005014086010BD0020DFF828140860002057
:10154000A04908700020A04908700020DFF834147A
:1015500008700020DFF8E81308700020DFF8F413AB
:1015600008600020DFF8F01308600020DFF818148E
:1015700008600020DFF8E41308600020DFF8E013C3
:10158000087070470020DFF8E8130870002005E0BD
:101590000021DFF8E023C0B21154401CC0B204287F
:1015A000F6D30020DFF8A81308700020DFF89813A6
:1015B00008700020DFF8941308600020DFF878132B
:1015C0000860704700B587B00320049000200390A6
:1015D00080200290DFF8B40301904FF6FF70009076
:1015E0001F23DFF8AC2300210FF2491000F0F0FBBD
:1015F00005AADFF8A0131F2000F0F5FC07B000BD1E
:1016000000B587B003200490002003904FF4807051
:101610000290DFF8840301904FF6FE7000901E23C5
:10162000DFF8782300210FF22D1000F0D1FB05AA7E
:10163000DFF86C131E2000F0D6FC07B000BD10B51B
:101640004FF42061DFF85C0300F02EF88021BD48E4
:1016500000F02AF8002112E04A1CDFF84803C9B262
:10166000502303FB01F30344DFF83843D2B2502088
:10167000424304EB0200586135A09864491CC9B28A
:101680001F29E9D3DFF81C23C9B25020414302EBE4
:101690000103002058612EA098640020B34908601F
:1016A000C048C149086010BD03E000220270401C20
:1016B000491E89B20029F8D1704710B5002400F006
:1016C000C3FA04003F480078002820D13E48007843
:1016D00000281CD100F01FF89A489B49097850F85F
:1016E00021009A4908609848007899490978884209
:1016F0000DD096480068406B401C944909684863C7
:1017000094480068401C9349086000F0B6FA200035
:1017100000F09EFA10BD984895490978405CC0B227
:10172000C100954A934BC0B2185C105C08188649FA
:101730000870704780B5002000F086FA8649096875
:10174000491C854A116000F083FA00F047F9F3E77D
:101750003F00000080B5002002E0642000F0D2FAD3
:101760007F4800780028F8D07C4800686421B0FBEE
:10177000F1F07A49086079480068002805D1002016
:101780008A490870FF2000F099FC00F05DFA724968
:1017900009687D4A116000216F4A116000F058FA13
:1017A000794800686D490968B0FBF1F0D0F1640038
:1017B0007E49087000F014F900F008F8322000F0BB
:1017C000A1FAE2E7FF4A0120004B01201CB50024EA
:1017D00017E069462000C0B200F032FCC0B2002819
:1017E0000ED15848E4B250F82400002808D001284F
:1017F00006D08168C26801EB8201016401994164ED
:10180000641CE4B2202CE4D313BD2DE9F0410500A3
:101810000F0090461E00002000F016FA62490C6886
:10182000002C00F0838061695F4A116000F010FABB
:10183000276084F82E50002084F82C00002084F8C3
:101840002D000020A062079860600698E060C4F850
:101850000880089820826682002084F833002800DF
:10186000C0B2C00884F8300015F0070084F82F00DB
:10187000012194F83000814084F83210012194F85D
:101880002F00814084F831100020E06100202062A8
:1018900000206062002060630020E0630020A063FD
:1018A000002020640020606424A0A064002005E0E3
:1018B0000021C0B204EB8002D164401CC0B20028F9
:1018C000F6D0200000F0D2F8200000F085F800F0FB
:1018D000BBF91C49EDB241F8254024490968616112
:1018E0000021A16121490968002902D01F49096826
:1018F0008C611E490C601E490A7894F832100A4324
:101900001B490A701B4994F830208A5C94F8311006
:101910000A43184994F83030CA541A490978491CC6
:10192000184A117000F094F9002002E000F090F9DC
:101930004220BDE8F0810000A84A01203F000000DD
:10194000044B012000230010024B0120B04A01206B
:10195000014B0120904A0120A44A0120984A01200D
:10196000FE4A0120BC4A0120064B0120B44A012056
:10197000034B0120A04A0120405700084C380120A9
:10198000944A0120054B01209C4A012000210010AF
:10199000FC220010486A000800150010FC18001016
:1019A000586A000800000010AC4A0120FD4A0120DE
:1019B0004349802003E0401E00220A60091D0028E0
:1019C000F9D14048404908603F480068C008C0005D
:1019D0003D490860704770477047704770477047CF
:1019E00070470300101DC008C000001F5FF0807228
:1019F0000260001F0360001F344A0260001F5FF096
:101A000012320260001F5FF003320260001F5FF0BD
:101A100002320260001F5FF001320260001F0160AD
:101A2000001F5FF011310160001F5FF01031016095
:101A3000001F5FF009310160001F5FF00831016095
:101A4000001F5FF007310160001F5FF00631016089
:101A5000001F5FF005310160001F5FF0043101607D
:101A6000001F7FF0020101607047704770477047A8
:101A700080B500F0E9F816490978491C144A11703C
:101A800000F0E6F8FFF7D8FBFFF74CFB01BD10B5FF
:101A900004007FF00400FFF700FBE4084FF4FA6055
:101AA00044430C48006850F002000A4908600A48A4
:101AB00004600848006850F001000649086010BD45
:101AC0004C4101204C430120C04A01205B21000809
:101AD000FF4A012010E000E014E000E010B54FF4F0
:101AE000F0711248FFF7E0FD00210EE04A1C0F489C
:101AF00089B2182303FB01F303440C4C92B2182063
:101B0000424304EB02001860491C89B21329EDD34B
:101B1000064A89B21820414302EB010300201860F5
:101B200002480149086010BDB84A01204C45012017
:101B3000174818481848194819481A481A481B489D
:101B40001B481C481C481D481D481E481E481F486D
:101B50001F4820482048214821482248224823483D
:101B6000234824482448254825482648264827480D
:101B7000274828482848294829482A482A482B48DD
:101B80002B482C482C482D482D482E48704700BF24
:101B90000E0E0008E86A00081E34000846370008E8
:101BA00026100008DE3F00081640000876460008B0
:101BB0003A4B00083E5700083A590008225D0008D9
:101BC00042610008D6610008F26200084868000817
:101BD000B2680008C2680008C66900081C6C0008EA
:101BE0001E6C0008206C0008226C0008246C0008A1
:101BF000266C0008286C00082A6C00082C6C000871
:101C00002E6C0008306C0008326C0008346C000840
:101C1000366C0008386C00083A6C00083C6C000810
:101C20003E6C0008406C0008426C0008446C0008E0
:101C3000486C00084A6C00084C6C00084E6C0008A8
:101C4000506C0008646C0008EFF3108072B67047A7
:101C500080F3108870472148FF210170002080F335
:101C600009881F48016881F308881E480121017016
:101C70001D481E49016062B6FEE71B481B49016012
:101C80007047194819490160704772B6EFF309802F
:101C900050B11EF0100F08BF20ED108A734620E9E6
:101CA000F80F13490968086000B5124880475DF8CD
:101CB00004EB114811490A7802700D4810490A686E
:101CC00002601068B0E8F80F9E461EF0100F08BFC3
:101CD000B0EC108A80F3098862B6704722ED00E00C
:101CE000C04A0120044B012004ED00E00000001078
:101CF000A84A01206B1A0008014B0120024B012069
:101D0000B04A012010B5040000202C4800780028BB
:101D10002BD12B480078002827D1002C25D0FFF7A5
:101D200093FF2849096891F830202749D2B28B5C8B
:101D30002449096891F831108B432349D2B28B545E
:101D40002149D2B2895C002908D120490A781D496D
:101D5000096891F832108A431C490A7019490968C8
:101D60008C62FFF775FFFFF7A8FC10BD38B5134C68
:101D70002478002C01D055201FE0114C2478002C31
:101D800001D0322019E0C0B24FF46165C9B23C24E1
:101D9000614305FB001050FA82F04FF4FA729BB2D7
:101DA0005B1C4FF4FA714B434FF47A71B3FBF1F1C2
:101DB00002FB0010FFF7A6FF002032BDFF4A012002
:101DC000004B0120A84A0120A04A0120034B01201A
:101DD000FEB504000E0017001D000020FFF734FFC1
:101DE000DFF8A0130978002903D0FFF731FF3C206A
:101DF00042E0DFF87C13EDB251F82510002938D10C
:101E00000121DFF86C23EDB242F82510FFF720FF27
:101E10000C9A0A99099800F0BFF90C9B3A0031001E
:101E20002000FFF7DEFD0C9902910B9901910A99B0
:101E30000091089B099A01002800C0B2FFF7E5FC59
:101E40000400E4B2002C07D1DFF834030078012845
:101E50000CD1FFF732FC09E0FFF7F6FE0021DFF8B6
:101E60001023EDB242F82510FFF7F2FE2000C0B2B9
:101E700002E0FFF7EDFE2820FEBD70B5050000264C
:101E8000DFF800030078002801D04020AAE0EDB27E
:101E90001F2D01D13E20A5E0FFF7D6FE0600EDB2D2
:101EA000FF2D04D1DFF8CC02006890F82E50DFF847
:101EB000C002EDB250F82540002C04D13000FFF7ED
:101EC000C7FE43208EE0012C04D13000FFF7C0FE96
:101ED0003D2087E0DFF8A00294F83010415C94F8D0
:101EE00031008143DFF8900294F830208154DFF80C
:101EF000880294F83010405C002808D1DFF87C029A
:101F0000017894F832008143DFF870020170E069D3
:101F1000002803D0E1692000FFF78FFA206A00282B
:101F200003D0216A2000FFF7A3FA0020A06200205E
:101F300084F82C00002084F82D00DFF84C02007893
:101F4000FF2806D0DFF840020078401CDFF8381286
:101F500008703000FFF77CFEFFF7E0F9FFF774FE32
:101F60000600DFF824020078002806D0DFF8180207
:101F70000078401EDFF8101208702000FFF72DFDDA
:101F8000DFF808020078401EDFF800120870002019
:101F9000DFF8DC11EDB241F82500A069002807D177
:101FA0000020616988616069DFF8E411086005E07C
:101FB0006069A1694861A06961698861DFF8D4013D
:101FC00000686061DFF8CC0104603BA0A0643000D1
:101FD000FFF73EFEDFF8A8010078012801D1FFF7E6
:101FE0006CFB002070BD70B506000D0014000020D1
:101FF00064480078002802D0122020701FE0FFF70C
:1020000023FEF6B2FF2E03D15A49096891F82E60DB
:102010005749F6B251F82610002904D1FFF718FEEF
:10202000432020700BE0012904D1FFF711FE43206B
:10203000207004E08D64FFF70BFE0020207070BD5F
:10204000F8B505000C000020002020600020606032
:10205000FFF7FAFDEDB2FF2D03D14649096891F86B
:102060002E504349EDB251F82510002903D1FFF756
:10207000EFFD43201EE0012903D1FFF7E9FD4320D6
:1020800018E00A7CD20703D4FFF7E2FD452011E0F7
:102090000026CD688F68FFF7DBFD00E0761C380076
:1020A000071D00680028F9D0B0002060AE1BB0000A
:1020B00060600020F2BD00003F00000038B5050060
:1020C0000020FFF7C1FDEDB2FF2D05D129490968B8
:1020D00091F82E5001240AE02900264A126892F84D
:1020E0002E20C9B2914201D1012400E000242049F0
:1020F000EDB251F82510002903D1FFF7A9FD4820C2
:102100002AE0012903D1FFF7A3FD432024E091F841
:102110003030194ADBB2D55C91F831209543164A2C
:10212000DBB2D554144ADBB2D25C002A06D1134A82
:10213000137891F832209343104A137091F82C20B1
:1021400052F0080281F82C20FFF782FDE4B2012C46
:1021500001D1FFF7B2FA002032BD80B50548006812
:10216000FFF73DFCFF20FFF788FE01BD00000000E7
:1021700000230010A84A0120A04A0120034B01209F
:10218000044B0120FF4A0120004B0120054B012098
:10219000B44A0120AC4A0120D30708D5920704D4E1
:1021A00005E0491E00220260001D0029F9D1704798
:1021B00038B50400A06D85682069D0F8840005401A
:1021C000E80717D5002555F00105A06D8560E0787A
:1021D000012808D1A06D0069D4F8B0134003400B6A
:1021E000081AC4F8B40301212000DFF8DC271268C4
:1021F00012689047C5F34000002804D0002555F030
:102200000205A06D8560012032BD38B5040020694B
:10221000406C2169496B890111F080010843E16933
:102220008D680540E80716D502202169496B31EA1F
:10223000000021694863002555F00105E0698560CB
:102240000120DFF88817087001212000DFF87827C7
:10225000126852689047C5F34000002804D000255A
:1022600055F00205E0698560C5F3C000002804D080
:10227000002555F00805E0698560C5F300100028C9
:1022800004D0002555F01005E0698560C5F3801085
:10229000002804D0002555F04005E0698560C5F3AD
:1022A000C010002803D00121200000F039FA0120DD
:1022B00032BD70B5050000262800FEF71FF9002882
:1022C00070D02800FEF724F90400002C01D1002072
:1022D00069E0C4F3C040002803D0280000F05BF997
:1022E0000643C4F38040002803D0280000F0E3F840
:1022F0000643C4F34000002804D0002050F0020040
:10230000E96848612000C00F002803D0280000F0D1
:102310006CF80643C4F3C020002803D0280000F066
:1023200089F80643C4F3C000002803D0280000F059
:1023300098F90643C4F30010002803D0280000F0E9
:102340009FF90643C4F30030002803D0280000F0B2
:1023500045FA0643C4F34030002803D0280000F0BB
:1023600097FA0643C4F30050002803D0280000F079
:102370000FFB0643C4F34050002803D0280000F0B0
:1023800015FB0643C4F38070002803D0280000F03A
:102390000BF80643C4F38000002803D0280000F0A7
:1023A00012F80643300070BD10B504002000DFF8BD
:1023B00018160968496A8847002050F08040E16893
:1023C0004861012010BD38B50400E0684568C5F3D8
:1023D0008000002805D02000DFF8EC150968896A24
:1023E0008847E0684560012032BD10B50400A07A3E
:1023F000002809D0D4F80C01006830F00200400831
:102400004000D4F80C110860002050F00100216950
:10241000496831EA0000216948602000DFF8A8150A
:10242000096889698847002050F00040E1684861E8
:10243000012010BD10B582B0040000208DF800000E
:1024400094F812018DF800002000DFF87C1509686F
:102450004969884720698168002050F40060E2687B
:102460005061A07A002824D0C80722D594F815011D
:1024700001281ED19DF8000003281AD1002050F039
:102480000100D4F80C1109680143D4F80C21116043
:1024900050F00200D4F80C1109680843D4F80C116C
:1024A0000860DFF82C05006850F00600DFF8201502
:1024B0000860012016BDF8B5060000240027300092
:1024C000FEF779FB050062E0E8075ED52100C9B29E
:1024D000300000F0A5FA0700F80722D50120A0403F
:1024E0003169496B31EA000031694863002757F0D0
:1024F000010706EB8400806987602100C9B23000C3
:10250000DFF8C424126852689047F078012808D197
:10251000002C06D196F81101042802D13000FEF7F4
:1025200052FBC7F3C000002806D0002757F0080769
:1025300006EB840080698760C7F30010002806D08E
:10254000002757F0100706EB840080698760C7F307
:102550008010002806D0002757F0400706EB8400C3
:1025600080698760C7F34000002806D0002757F035
:10257000020706EB840080698760C7F3C01000285B
:1025800003D02100300000F0CBF8641C6D08002D52
:102590009AD10120F2BDF8B50600002400273000D2
:1025A000FEF7F7FA050058E0E80754D52100C9B254
:1025B0003000FEF7F6FA0700F80730D5002757F08D
:1025C000010706EB8400406D8760F078012812D186
:1025D00006EB8400406D0069282101FB04F13144C1
:1025E000D1F87C134003400B081A282101FB04F1A9
:1025F0003144C1F88C032100C9B23000DFF8C82390
:10260000126812689047F078012808D1002C06D192
:1026100096F81101052802D13000FEF7D4FAC7F36D
:102620004000002806D0002757F0020706EB840080
:10263000406D8760C7F3C00000280CD03000DFF881
:102640008813096889688847002757F0080706EB50
:102650008400406D8760641C6D08002DA4D10120AA
:10266000F2BD10B504002000DFF85C130968C968EA
:102670008847002050F00800E1684861012010BD43
:10268000F8B50400002555F01005E0688069A843FE
:10269000E1688861E068066A16F00F01282041436E
:1026A00004EB010010F55D773000400C10F00F00D6
:1026B000012808D0022807D003281CD004281BD0EA
:1026C00006281AD025E024E030004004400D002800
:1026D00010D0C6F30A1292B2F9682000FDF7B1FDDE
:1026E000F868C6F30A110844F860B969C6F30A101D
:1026F0004118B9610DE00CE00BE0082204F2CC5166
:102700002000FDF79EFDB969C6F30A104118B961B2
:10271000FFE7E06880690543E06885610120F2BD5C
:102720002DE9F04104000D005FF000080020282092
:1027300000FB05F0204410F58E767069D6F81880FD
:10274000B0EB0808B068404501D2D6F8088018F10F
:1027500003085FEA9808474604EB850080698069B2
:102760002FE07069D6F81880B0EB0808B0684045D3
:1027700001D2D6F8088018F10307BF0843469BB280
:102780002A00D2B2F1682000FDF73EFDF068404417
:10279000F060B06918EB0008C6F8188004EB8500FB
:1027A000806980697169B26991420AD1012296F902
:1027B000001012FA01F12269526B32EA010122691A
:1027C000516380B2874206D2B0697169884202D2F1
:1027D00070690028C5D10120BDE8F081F8B504007A
:1027E00000210025002600270020002051F00101D3
:1027F0002069406830EA0101206941600021200021
:10280000FDF712FE00200AE004EB80018969FF2237
:102810008A6004EB8001496DFF228A60401C617868
:102820008842F1D35FF0FF3021698861012060F3B5
:102830000F05012060F31F452069C56156F00806A9
:1028400056F0010656F00206206946612069C0F87C
:10285000846057F0010757F0080757F00207206916
:102860000761206947642069006830F4FE602169CF
:1028700008602000FEF7A7F9002050F48050E168BE
:102880004861200050490968096988470120F2BD64
:102890007FB504004F4E2000FDF766FF6846FEF747
:1028A000B7FA019EE068C56835F47055E068C56008
:1028B0002000FDF741FF032808D10020A0704FF44D
:1028C0000070A080092060F38D2557E00120A070E2
:1028D0004020A0804048301A4049884203D20E2050
:1028E00060F38D254AE03E48301A3E49884203D2C3
:1028F0000D2060F38D2541E03B48301A3B4988426A
:1029000003D20C2060F38D2538E03948301A39495C
:10291000884203D20B2060F38D252FE03648301A11
:102920003649884203D20A2060F38D2526E03448D8
:10293000301A3449884203D2092060F38D251DE006
:102940003148301A3149884203D2082060F38D257E
:1029500014E02F48301A2F49884203D2072060F331
:102960008D250BE02C48361A2C48864203D20620CF
:1029700060F38D2502E0052060F38D25E068C560D9
:10298000002050F40050E1684861012004B070BD9F
:1029900038B50400002520000B490968C96988473B
:1029A00055F48015E0684561012032BD38B504005A
:1029B0000025200004490968096A884755F4001574
:1029C000E0684561012032BD500A0020074B01201C
:1029D00010ED00E0007A030AC0E1E40040420F007D
:1029E0000024F400E0C81000E0EC040120D613003D
:1029F00000C31801006A1800002D310140771B0048
:102A000040A44C01C091210000366E0140AC27006B
:102A100040E2950140E1330080C3C901E09C4100E0
:102A20000269126903695B6BCB40DB0113F0800321
:102A30001A43C9B200EB810080698068104070477A
:102A400010B500244A78002A18D0012A1CD0032A85
:102A500017D0052A09D0062A04D0082A0BD0092A43
:102A600006D014E000F003F913E000F0BAF910E02A
:102A700000F0E3F90DE000F040FA0AE000F059FA46
:102A800007E000F071FA04E000F0C2FA01E000F0A3
:102A9000FBFA2000C0B210BD70B505000E00002486
:102AA00095F81201032817D1307902280FDA310086
:102AB0002800D5F8E42592689047F08800280AD1CC
:102AC000E4B2002C07D1280000F057FB03E03100EE
:102AD000280000F0D9FA03E03100280000F0D4FA11
:102AE0002000C0B270BD70B505000E000024B18892
:102AF000307810F06000202808D131002800D5F887
:102B0000E425926890472000C0B2AFE070780028BA
:102B100060D0012830D0032840F0A68095F812013B
:102B2000022802D003280BD021E0C9B2002906D028
:102B3000C9B2802903D0C9B2280000F022FC1AE0F3
:102B40007088002809D1C9B2002906D0C9B28029ED
:102B500003D0C9B2280000F014FC31002800D5F8D9
:102B6000E42592689047280000F007FB03E031005D
:102B7000280000F089FA77E095F81201022802D0C7
:102B800003280BD021E0C9B2002906D0C9B28029A0
:102B900003D0C9B2280000F0F4FB1AE070880028C6
:102BA00012D1C9B200290CD0C9B2802909D0C9B24A
:102BB000280000F008FC31002800D5F8E4259268D0
:102BC0009047280000F0D9FA03E03100280000F017
:102BD0005BFA49E095F81201022802D003280BD0D5
:102BE0003DE0C9B2002906D0C9B2802903D0C9B2DC
:102BF000280000F0C6FB36E0C9B2080614D5C9B2F9
:102C000011F07F012820414305EB010090F81E01DF
:102C1000002804D00120DFF8E013086018E000204D
:102C2000DFF8D413086013E0080611D4C9B22820D5
:102C3000414305EB010090F87603002804D0012001
:102C4000DFF8B413086003E00020DFF8AC1308607D
:102C50000222DFF8A413280000F051FA03E031004B
:102C6000280000F011FAFFE72000C0B270BD38B5AF
:102C700004000D00E888ADF80000688880B2000A02
:102C8000C0B2012809D002281DD0032832D006285E
:102C90006BD0072800F0858094E06946A078D4F8CE
:102CA000EC2512689047BDF80010002900F09880CC
:102CB000E988002900F09480BDF80010EA8891426C
:102CC00080F0858086E06946A078D4F8E425926A91
:102CD0009047A178012908D1217A012905D16946B7
:102CE000A078D4F8E425D26A904702214170C4F854
:102CF000F005D8E7A878002808D0022814D00CD313
:102D000004281FD017D3052823D029E06946A078CE
:102D1000D4F8EC2552689047C5E76946A078D4F806
:102D2000EC2592689047F7E76946A078D4F8EC253F
:102D3000D2689047F0E76946A078D4F8EC2512698C
:102D40009047E9E76946A078D4F8EC2552699047A6
:102D5000E2E76946A078D4F8EC2592699047DBE772
:102D60002900200000F090F93AE0A078002813D163
:102D70006946A078D4F8E425926A9047817B9F4AFF
:102D80001171C17B9D4A5171007C9C4988719B489F
:102D90000A21ADF8001086E72900200000F074F940
:102DA0001EE0A078002808D16946A078D4F8E42570
:102DB000D26A90470721417075E72900200000F092
:102DC00063F90DE02900200000F05EF908E0E988D1
:102DD000ADF80010BDF800200100200000F08FF9D0
:102DE00031BD38B505008888002822D1C888002860
:102DF0001FD18C7814F07F0495F81201032803D1B9
:102E0000280000F041F917E085F814412100C9B20B
:102E1000280000F0FAFA280000F0AFF9E4B2002C24
:102E200003D0022085F8120106E0012085F8120186
:102E300002E0280000F028F931BD10B504004888F0
:102E40006F4A10706E480078022803DB200000F003
:102E50001BF951E094F81201022802D0032818D07F
:102E600047E06748007800280FD06548007884F86C
:102E70001001032084F8120161480178200000F05D
:102E800022FC200000F079F902E0200000F075F942
:102E900032E05B48007800280FD1022084F812014C
:102EA0005748007884F8100155480178200000F058
:102EB00018FC200000F061F91AE05148007894F8FD
:102EC0001011884211D094F81011200000F009FC74
:102ED0004B48007884F8100149480178200000F040
:102EE000F2FB200000F049F902E0200000F045F973
:102EF00002E0200000F0C8F810BD80B5CA88012AA1
:102F000002D000F0C1F813E090F81221022A02D09A
:102F1000032A05D00AE001223A4900F0F0F807E060
:102F2000012210F5887100F0EAF801E000F0ACF839
:102F300001BD80B590F81221921E012A11D80121FD
:102F4000314A1160D0F81811002905D02E490968BE
:102F500051F002012C4A116002222B4900F0CFF8F7
:102F600001E000F091F801BD10B50400002248888E
:102F700001280BD10120C4F818012000D4F8E42561
:102F800092689047200000F0F8F834E04888022862
:102F900031D1087900062ED1206940688A8892B222
:102FA000120AD2B2012A07D01AD3032A0CD007D3AF
:102FB000052A11D00CD313E0012161F3061012E0B1
:102FC000022161F306100EE0032161F306100AE00E
:102FD000042161F3061006E0052161F3061002E00A
:102FE000012161F3061009490860012084F81601E7
:102FF000200000F0C2F810BDEC4A0120380A002081
:10300000094B0120F04A0120F44A0120E84A01203E
:1030100010B5040094F81201801E01280ED84888CB
:1030200001280AD10020C4F818012000D4F8E425B2
:1030300092689047200000F0A0F802E0200000F025
:1030400023F810BD90F8CC250A7090F8CD254A7071
:1030500090F8CE2590F8CF351B029A184A8090F848
:10306000D02590F8D1351B029A188A8090F8D22585
:1030700090F8D3351B029A18CA80C988C0F840114D
:10308000012180F81111704710B504008021200043
:1030900000F077F90021200000F073F92000FDF71F
:1030A00092FD10BDF8B504000D0017000026002C9D
:1030B0001AD0200000F019F84000801C38803888B1
:1030C000F6B2A855761C0320F6B2A855761C08E087
:1030D0002078F6B2A855641C761C0020F6B2A855DC
:1030E000761C20780028F3D1F1BD0200002001E019
:1030F000401C521C11780029FAD1C0B2704710B59B
:10310000130000249BB2C0F83C319BB2C0F83831A8
:10311000022280F811219BB20A00002100F012F96E
:103120002000C0B210BD10B5130000249BB20A00ED
:10313000002100F007F92000C0B210BD10B5130047
:1031400000249BB2C0F894339BB2C0F890330322A2
:1031500080F811219BB20A00002100F0D0F8200075
:10316000C0B210BD10B5130000249BB20A000021AC
:1031700000F0C5F82000C0B210BD38B5040000252D
:10318000042084F81101002300220021200000F017
:10319000D9F82000FDF717FD2800C0B232BD38B5C0
:1031A00004000025052084F81101002300220021DD
:1031B000200000F0A4F82000FDF705FD2800C0B2B3
:1031C00032BD10B50400C9B22000FDF74EF8012051
:1031D00084F81201002084F81401002012E0282154
:1031E00001FB00F1214411F58E7101224A70087033
:1031F000C8800022CA7040228A600022CA60002271
:103200004A61401C61788842E9D3002012E02821FD
:1032100001FB00F1214411F55D7100224A70087034
:10322000C8800022CA7040228A600022CA60002240
:103230004A61401C61788842E9D32000FDF7E7F835
:103240002000FDF780F800212000FDF737F920006D
:10325000FDF76EF92000FDF7CEF810BD38B5C9B204
:103260000C0609D5C9B211F07F052824654300EB8F
:10327000050414F58E7408E0C9B211F07F05282406
:10328000654300EB050414F55D7411F07F052570AE
:10329000C9B2C909617092B2A260E3706178002975
:1032A00001D02178E180DBB2022B01D10021217114
:1032B0002100FDF781FA002032BD80B5C9B20A06AF
:1032C00009D5C9B211F07F032822534300EB030252
:1032D00012F58E7208E0C9B211F07F032822534321
:1032E00000EB030212F55D7211F07F031370C9B297
:1032F000C90951701100FDF7A6FA002002BD38B5CA
:103300000C00E4B214F07F0528214D4300EB0501C9
:1033100011F55D71CA609BB24B6100238B61002384
:103320004B7014F07F040C70C378012B00D10A613C
:103330000A78002A02D1FDF775FB01E0FDF7BCFA1F
:10334000002032BD38B50C00E4B214F07F0528210E
:103350004D4300EB050111F58E7101254D7014F000
:103360007F040C70CA600A6100228A614B610A788E
:10337000002A02D1FDF756FB01E0FDF79DFA00207F
:1033800032BD80B5C9B20A0609D5C9B211F07F03B2
:103390002822534300EB030212F58E7206E0C9B2F5
:1033A000282202FB01F2024412F55D7201239370A0
:1033B00011F07F031370C9B2C90951701100FDF7F4
:1033C000AAFB002002BD80B5C9B20A0609D5C9B260
:1033D00011F07F032822534300EB030212F58E7293
:1033E00006E0C9B2282202FB01F2024412F55D7226
:1033F0000023937011F07F031370C9B2C909517093
:103400001100FDF7A7FB002002BD0022C9B261F345
:103410000A12016909680A430069026070474000A6
:103420002DE9F04104000D0016001F00DDF81880A2
:103430002000FDF7F5FB200000F014F8C4F8E47557
:10344000C4F8E885C4F8EC652900C9B22000FFF78C
:10345000B8FED4F8E805006880472000FDF78AFC34
:10346000BDE8F081002070471CB5040069462000CB
:10347000FFF7E8FD9DF8000010F01F00C0B2002823
:1034800003D002280BD005D30EE069462000FFF7D9
:10349000D7FA10E069462000FFF7FEFA0BE0694614
:1034A0002000FFF720FB06E09DF8001011F08001DE
:1034B0002000FFF766FF002016BD10B50400C9B25A
:1034C000002933D114F55D7194F8110103283CD122
:1034D0008868CA69904217D2CA698868121ACA6194
:1034E000E078012803D1C8688A681044C860C869B8
:1034F0008A68904201D2CA6900E08A6892B2C968BB
:103500002000FFF72FFE20E0D4F8E4050069002832
:1035100008D094F81201032804D12000D4F8E4154F
:10352000096988472000FFF728FE0EE0D4F8E4057B
:103530008069002809D094F81201032805D1C9B286
:103540002000D4F8E42592699047002010BD38B5DA
:103550000400C9B200295BD114F58E7594F81101ED
:1035600002284AD1A868E969884217D2E969A8689F
:10357000091AE961E078012803D1E868A9680844DC
:10358000E860EA6992B2E9682000FFF7CCFD002309
:10359000002200212000FFF7B2FE2EE0286AA96871
:1035A000B0FBF1F201FB1200002815D1286AA968CE
:1035B000884211D3286A696A88420DD2002200210C
:1035C0002000FFF7B0FD00206862002300220021E8
:1035D0002000FFF794FE10E0D4F8E405C06800284E
:1035E00008D094F81201032804D12000D4F8E4157F
:1035F000C96888472000FFF7D2FD94F8160101281A
:1036000015D1200000F015F8002084F816010EE016
:10361000D4F8E4054069002809D094F81201032881
:1036200005D1C9B22000D4F8E425526990470020A2
:1036300032BD0349096800694160002070470000FD
:10364000E84A012010B50400002340220021200098
:10365000FFF704FE0023402280212000FFF7FEFD3B
:10366000012084F81201A078D4F8E8154968884749
:10367000002010BD10B50400D4F8E80500698047AB
:1036800094F8130184F81201032084F81201002039
:1036900010BD80B590F8121180F81311042180F844
:1036A0001211D0F8E805C0688047002002BD80B53F
:1036B000D0F8E415C969002903D0D0F8E415C96928
:1036C0008847002002BD10B50400C9B22000D4F81C
:1036D000E42512689047D4F8E80580688047002008
:1036E00010BD80B5C9B2D0F8E425526890470020DB
:1036F00002BD80B5D0F8E415096A8847002002BDF4
:1037000080B5D0F8E415496A8847002002BD10B59D
:103710000400D4F8E80540698047012084F81501C9
:10372000002010BD10B50400D4F8E805806980477A
:1037300000212000D4F8E42552689047002084F846
:103740001501002010BD01002DE9F0410E00170009
:10375000C0B2002805D002281AD017D3032819D0E8
:103760001AE03625FFB2002F00F0D180022F00F0C2
:10377000FD80C0F0FB80032F40F00981082000F09D
:10378000A3F90400002C12D10020BEE02225E9E7B5
:103790000E25E7E70025E5E7DFF8F432E822DFF859
:1037A000F412DFF8F40200F0DBF90020ADE027733B
:1037B00000202060ADB204EB05001030C01C800872
:1037C00080006060207910F0030F08D0DFF8C0326D
:1037D000FB22DFF8C812DFF8C00200F0C1F9268131
:1037E000B6B2ADB2E81C30F00300D0F540708642AE
:1037F00001DA310005E0E91C4FF6FC700140D1F51B
:103800004071618114F54470616862891144884295
:1038100009D2DFF87C324FF48172DFF88412DFF8CE
:10382000780200F09DF9ADB2ED1C35F00305D5F539
:103830004075012D09DADFF858324FF48272DFF853
:103840006412DFF8540200F08BF90120E081A046F9
:10385000B6B26089361A46E04FF440701BE02F7311
:103860000020687300202860C8F800504FF6FF70F1
:10387000864209DBDFF818324FF48F72DFF8281226
:10388000DFF8140200F06CF92E81300080B2B0F540
:10389000407FE1DA3000688115F110006860287916
:1038A00010F0030F09D0DFF8E8314FF49272DFF81F
:1038B000FC11DFF8E40100F053F914F5447061687D
:1038C00062891144884209D2DFF8C43140F22712DC
:1038D000DFF8CC11DFF8C00100F042F90120E881E7
:1038E0006889361AA846012E0ADB082000F0ECF899
:1038F0000500002DB3D1200000F055F8002004E0B1
:103900000120E081002060732000BDE8F08115F106
:1039100013004FF6FC710840B6B2F11C31F0030100
:10392000081880B200F0F0F90400002C01D100204A
:10393000EBE7ADB204EB05001030C01C800880003E
:1039400060602681208960810020206027732079B3
:1039500010F0030F09D0DFF8383140F23F12DFF8E2
:103960005011DFF8340100F0FBF8C9E7072000F040
:10397000ABF80400002C01D10020C6E700206060F5
:10398000268120896081002020602773B8E7DFF856
:1039900000314FF4AA72DFF81C11DFF8FC0000F0D0
:1039A000DFF80020B1E7F8B50400002C0DD1002CA1
:1039B00009D1DFF8DC3040F27122DFF8FC10DFF8CB
:1039C000D80000F0CDF8002060E0207B002812D065
:1039D000207B01280FD0207B02280CD0207B0328DD
:1039E00009D0DFF8AC3040F27D22DFF8D010DFF8EC
:1039F000A80000F0B5F8002504E0200000F03EF932
:103A00006D1C3400002C3FD0E089002809D1DFF87C
:103A1000803040F28A22DFF8A810DFF87C0000F046
:103A20009FF8E089401EE081E08980B2002829D11A
:103A30002668207B617B890711D52700386900281B
:103A400009D1DFF84C304FF42672DFF87810DFF838
:103A5000480000F085F8200039698847D0E780B237
:103A6000032804D12100082000F053F8C8E780B2F1
:103A7000012802D080B20228BFD12100072000F027
:103A800048F8BDE70024BDE72800C0B2F2BD000041
:103A900050640008186900089866000884650008EA
:103AA000BC640008F0640008FC690008B465000804
:103AB000C466000834690008A06A0008806900082C
:103AC000986900088467000810B5C0B2092808DBAF
:103AD0001E4B40F28F121E491E4800F041F8002094
:103AE00016E01949C0B251F82040002C0FD02168CF
:103AF000154AC0B242F8201014F00300002806D086
:103B0000124B40F2A1121449124800F029F820008B
:103B100010BD38B505000C00002C13D014F00300C4
:103B2000002806D0094B40F2BD120C49094800F0AC
:103B300017F80548EDB250F8250020600248EDB2B4
:103B400040F8254031BD00002C4A012018640008CF
:103B50004C6800086C660008606700086C68000824
:103B60000EB4C0B5024603A800210190009101AB3C
:103B70000121044878440C3000F09EF906BC5DF841
:103B800010FB00BF2D2E000010B50400DFF8CC02A2
:103B90000068844208D2DFF8C832F222DFF8C4128B
:103BA000DFF8C402FFF7DCFFDFF8C00200688442E0
:103BB00008D3DFF8AC32F322DFF8B412DFF8A80242
:103BC000FFF7CEFF2079002808D0DFF89432F422E6
:103BD000DFF8A012DFF89002FFF7C2FF208846F25C
:103BE0000141884208DBDFF87832F722DFF88812DB
:103BF000DFF87402FFF7B4FFDFF860020068218885
:103C000001448C421BD00879002818D1DFF85C02EF
:103C10000068814213D0DFF864020068884202D154
:103C2000DFF85802046008882080DFF8300200685E
:103C3000201ADFF828221268098811444880DFF82A
:103C40001C02006861880144A14216D0087900284E
:103C500013D1DFF828020068A04202D1DFF81C026D
:103C6000016020880880DFF8F4010068091ADFF895
:103C7000EC01006822881044418010BD10B504009A
:103C8000002C40D014F00300002809D0DFF8D03118
:103C900040F24112DFF8E811DFF8CC01FFF760FFD6
:103CA000DFF8B8010068844204D3DFF8C00100687F
:103CB000844209D3DFF8A8314FF4A272DFF8C411AF
:103CC000DFF8A401FFF74CFF64480068844203D387
:103CD00066480068844200D315E0083C207900283B
:103CE00006D15F4B4FF4AA7267495F48FFF738FF70
:103CF0000020207161480068844201D25F4804605E
:103D00002000FFF741FF10BD38B50400A4B2002C1D
:103D100001D100209FE0E41C4FF6FC700440A4B2E7
:103D20000C2C00DA0C24A4B246F20140844201DBE0
:103D3000002090E05148006848490968411A03E0B2
:103D40004648006889B2415A89B2A4B2D4F5C84045
:103D5000814280F27F804148006889B200EB010512
:103D600028790028ECD1288889B2401A0838A4B2F2
:103D7000A042E5D3288889B2401A0838A4B214F1C9
:103D80001402904217D360180830344A126880B287
:103D90000244002313712B88138051802880012155
:103DA00029711188B1F5C84F07D02C4909681288CC
:103DB0001144488001E001202871304800688542A4
:103DC00021D12E48016803E0244800680988014495
:103DD0000879002803D0254800688142F4D127489B
:103DE0000160264800682149096888420BD02348B1
:103DF00000680079002806D0194B40F2632223495D
:103E00001948FFF7ADFE1948006815FA84F108312A
:103E1000884206D2124B4FF41A721D491248FFF71E
:103E20009FFE15F00300002806D00D4B40F26A22D9
:103E300018490D48FFF794FE15F00300002806D03E
:103E4000074B4FF41B7214490748FFF789FE15F121
:103E5000080000E0002032BD00000000844A01207C
:103E6000886400085069000814660008884A012028
:103E7000C4680008E0680008406600088C4A012019
:103E80001867000868690008E8690008FC6800080D
:103E900024650008546500083C67000870B51C00E4
:103EA0000546164606D0084616F8011BA847641EAC
:103EB000FAD10146084670BD2DE9FC4383B0814626
:103EC000884617461D4607E001233A4641464846C4
:103ED000FFF7E4FF80467F1C3878E0B12528F3D156
:103EE0007978BF1C252912D058295AD0632915D0BA
:103EF000642918BF692918D06F2952D0702956D06B
:103F000073295BD0752918BF78294AD0E4E7404669
:103F1000C8478046E0E705B0BDE8F0832868286020
:103F200050F8041B2860C9B2F1E72868286050F8EF
:103F3000046B2860002E03D52D214046C8478046DB
:103F400064216F2908BF082205D041F0200078289D
:103F500014BF0A2210220B246429304602D1002EFD
:103F600048BF4042B0FBF2FC02FB1C003030641E34
:103F7000C3B23A2BA4BFA1F1510318180DF80400E5
:103F80005FEA0C0001D0002CECDC0DEB0406D4F150
:103F90000B044046BDD016F8011BC847641EFAD179
:103FA000B7E72868286050F8046B2860C9E72868DC
:103FB0002860782150F8046B2860C2E728682860E0
:103FC00050F8046B2860304600F00AF804004046C0
:103FD0009FD016F8011BC847641EFAD199E7140058
:103FE00000F10103810704D010F8011B89B181079A
:103FF000FAD10268B2F10131914311F0803F04BF60
:1040000050F8042FF6E710F8011B11B110F8011B4E
:10401000FBE7C01A7047000510B5040002234FF4F7
:10402000007281212000FFF719F902234FF400727A
:1040300001212000FFF712F903230822822120002A
:10404000FFF70CF9DFF8E002022101710021417154
:10405000B648006880474FF40073B54A012120003C
:10406000FFF74DF9002010BD10B50400812120009C
:10407000FFF723F901212000FFF71FF9822120001B
:10408000FFF71BF9A94840688047002010BD38B5EC
:1040900004000D00287810F06000C0B200282DD078
:1040A000202825D1E88800281AD0287800060BD5CA
:1040B000EA88A04968789D4B9B689847EA889D49A3
:1040C0002000FFF71CF811E068789B490860E88839
:1040D0009A490860EA8897492000FFF72FF805E021
:1040E000002200216878914B9B689847002025E0CA
:1040F00029002000FEF7C8FF02201FE0687806288C
:1041000004D00A2808D00B280CD016E02900200083
:10411000FEF7BAFF022011E0012289492000FEF7D4
:10412000EEFF0AE0A878002803D1A8788449086047
:1041300003E029002000FEF7A7FF002032BD80B574
:104140007D480068FF280AD07C48026879497A488F
:104150000068764B9B689847FF20774908600020ED
:1041600002BD10B577490978012906D17649096859
:10417000002910D10021734A11707249097802296F
:1041800007D1002300228121FFF7DCF800206D49D0
:104190000870002010BD6C49096840F2012291426C
:1041A00010D36A490A684FF400736849096811F529
:1041B0000071664C216064490968B1F50071624C78
:1041C000216014E061490A685F490B685F490C6827
:1041D0005D4909680C195D490C6000215A4C216049
:1041E0009BB2B3F5007F02D10221564C21709BB2E5
:1041F000574992B20A448121FFF7A4F80020C9E789
:1042000010B50400C9B22820414304EB0100D0F8E6
:104210008C1389B24648454A126990474FF400739F
:10422000434A01212000FFF76AF8002010BD80B545
:10423000484909684A1C474B1A60282904D10021C3
:10424000444A116000F002F8002002BD10B53D495B
:10425000097800295FD13D490968B1F5006F02D1A5
:1042600000213A4A1160394909683B4A1268914273
:1042700003D10020334908704DE037490968334ABB
:104280001268914206D231490968D1F500612E4A7F
:10429000116006E030490A682C490968521A2A4917
:1042A0000A602949096840F20122914213D3274943
:1042B0000A684FF400732549096811F50071234C11
:1042C000216021490968B1F500711F4C216001216D
:1042D0001C4C217018E01D490A681B490B681B49DA
:1042E0000C68194909680C1918490C600021164C12
:1042F00021609BB2B3F5007F03D10221114C2170E4
:1043000002E001210F4C21709BB2114992B20A4484
:104310008121FFF717F810BD432008800F48704730
:10432000432008800E487047140A0020000A00202D
:104330004C430120704A01204C0A0020E04A012031
:10434000D04A0120084B0120DC4A0120D84A012034
:10435000582A0120E44A0120D44A0120A80800205C
:10436000EC08002000B583B08248006850F00100DE
:104370008049086003208DF8040000208DF80700B4
:1043800002208DF805000320009069467A48FCF76A
:10439000CDFD07BDE0B57948006850F001007749D0
:1043A00008600020ADF808000020ADF802000020F1
:1043B000ADF8000040F22B10019069465FF080409C
:1043C00000F0F2F801215FF0804000F021F9202197
:1043D0005FF0804000F046F901215FF0804000F07E
:1043E00025F907BD00B58FB06248006850F4800021
:1043F0006049086000200090614801906148029087
:10440000002003904FF480600490002005904FF44A
:10441000806006904FF4006007904FF400500890C1
:104420004FF4807009905FF400300A9000200B90E8
:1044300001200C9000200D9000200E9069465248FB
:1044400000F01AF9002251494F4800F04CF90121BF
:104450004D4800F055F910214B4800F0B1F9012208
:104460001021494800F062F90121474800F02EF977
:104470000FB000BD80B538208DF8000000208DF809
:10448000010001208DF8020001208DF8030068462C
:10449000FCF7CFFD01BD00B58BB03D48006850F47E
:1044A00080703B490860002006904FF4A06009909E
:1044B000002008905FF48030079006A800F0C1F952
:1044C0000020009000208DF8040000208DF80500E9
:1044D0005FF0805002905FF0C06003900020049075
:1044E00001208DF8140069462A4800F085F902235E
:1044F00001220021274800F0C1F90121254800F0E0
:1045000036FA0121234800F025FA0121214800F064
:10451000A8F90BB000BD80B5FFF724FFFFF73AFF05
:10452000FFF760FFFFF7A6FFFFF7B5FF01BD80B5FE
:10453000FCF7E6FD1849144800F018F9002816D0D9
:10454000012016490870104800F0E7F8002803D150
:104550000C481349086002E00C48114908601148F2
:10456000006800F0BDFA0C49074800F029F9FCF793
:10457000D9FD01BD30380240000002404038024001
:104580004C200140580A01201064024058120120BA
:10459000443802400020014020800010FC4A0120E5
:1045A000804A0120CC4A012000230388264A9042F9
:1045B0000ED02B4A90420BD0B0F1804F08D0234A46
:1045C000904205D0224A904202D0224A904204D121
:1045D0004FF68F7213404A8813431F4A904207D008
:1045E0001E4A904204D04FF6FF4213400A891343FB
:1045F00003804A68C2620A880285134A904202D048
:10460000174A904201D1897A01860121818270473F
:10461000C9B2002904D0018851F08001018004E072
:1046200002884FF67F710A4002807047C9B20029A4
:1046300004D0018851F00101018004E002884FF6A6
:10464000FE710A40028070470000014000040040F3
:1046500000080040000C0040001000400014004022
:104660000004014083884FF68F7213408380828854
:10467000114381807047010010B400230368594A38
:1046800013400C68CA6814434A6914438A69144386
:10469000CA6914430A6A14434A6A14438A6A14436F
:1046A0004A6B14438A6B1443234303604369DB085A
:1046B000DB00CC6A0A6B1443234343610A694260FE
:1046C0004A6882608968C16010BC7047C9B200291D
:1046D00004D0016851F00101016003E0016849085C
:1046E000490001607047002A04D0026852F4002299
:1046F000026003E0026832F4002202600161704748
:10470000C9B2002904D0016851F48021016003E09E
:10471000016831F4802101607047010000200868C1
:10472000000301D5012000E0002070470B060BD5E7
:10473000D2B2002A04D0436953F08003436103E0FE
:10474000436933F08003436180290ED0D2B2002A3E
:1047500005D0026811F01E011143016005E00268F6
:1047600011F01E0132EA01010160704710B402002D
:104770000020002400201A48824201D21A4B00E097
:104780001A4B1C48014207D00C00E40A14F01E0426
:1047900010680440200002E0506910F080008A0098
:1047A00001D55C6800E01C68114A14400C4203D03B
:1047B000002801D0012000E00020C0B210BC7047EA
:1047C000074A904201D2084A00E0084A880003D50F
:1047D00007480140D16002E0054801409160704700
:1047E000106402403F801CF0006002400064024000
:1047F0007D0F7D0F3C0F3C0F30B400230024436835
:10480000614A13400A790D6855EA02252B4343603B
:1048100083685E4A13400D69CA6815438A68154368
:104820004A7955EA42052B438360C36A33F4700327
:10483000097D491E0C43E4B253EA0453C36230BC01
:104840007047002252490A6852490A400368416889
:104850000B4381680B43C06803431A434C48026012
:104860007047C9B2002904D0816851F0010181600C
:1048700003E081684908490081607047F0B4002571
:104880000024C9B20A2914DBC5680726B1F10A045D
:10489000032714FB07F416FA04F4A543DBB2B1F1C5
:1048A0000A04032614FB06F4A3401C002543C5603C
:1048B0000FE005690726032411FB04F416FA04F43B
:1048C000A543DBB2032411FB04F4A3401C002543E1
:1048D0000561D2B2072A12DA456B1F23541E052642
:1048E00014FB06F413FA04F4A543C9B2521E0523BF
:1048F00012FB03F291400C002543456328E0D2B23D
:104900000D2A12DA056B1F23D41F052614FB06F4AB
:1049100013FA04F4A543C9B2D21F052312FB03F214
:1049200091400C002543056312E0C56A1F23B2F1D4
:104930000D04052614FB06F413FA04F4A543C9B2CA
:104940000D3A052312FB03F291400C002543C5628A
:10495000F0BC7047C9B2002904D0816851F480715D
:10496000816003E0816831F4807181607047C9B271
:10497000002904D0816851F40071816003E08168EE
:1049800031F4007181607047FFFEFFFCFDF7FFC04E
:1049900004230140E030FCFF38B5050000214C48FD
:1049A0000078002801D000201DE0FDF74DF901003E
:1049B0004848046847480068002804D04548006813
:1049C0004068444A10600800FDF742F9002C09D005
:1049D000032020702581002060603CA02061200021
:1049E000FCF767FD200032BDF8B505000E0014008D
:1049F00000272878032802D00120207064E0344882
:104A00000078002802D0022020705DE03248007853
:104A1000002802D00D20207056E0FDF715F90700A0
:104A20002889002808D02889401E28813800FDF7F1
:104A30000FF90020207047E02848006890F82C000B
:104A400050F001002549096881F82C000020234915
:104A5000096881F82D002148006886622800FCF76B
:104A6000A6FC3800FDF7F4F8FCF727FEFDF7ECF89C
:104A700007001A48006890F82D00002802D002288C
:104A800003D005E00020207009E00E20207006E031
:104A9000290012480068FCF7D0FC0A202070002092
:104AA0000E49096881F82C0000200C49096881F83A
:104AB0002D00002009490968C861002007490968DC
:104AC00008623800FDF7C4F8F1BD00003F000000A7
:104AD000FF4A0120944A0120004B0120A84A0120EE
:104AE00038B5040000252078032801D0012023E0F8
:104AF000FDF7AAF80500A07A00280CD000230122B7
:104B000000212000FCF70BFC2800FDF7A1F8FCF7C2
:104B1000D4FD002010E020894FF6FF71884207D0B5
:104B20002089401C20812800FDF792F8002003E036
:104B30002800FDF78DF8332032BD000010B5DFF8F6
:104B40007C410320206103206061DFF87401A061D3
:104B5000DFF87001E0614FF4806020620020A06205
:104B6000002060620020E062DFF854012066DFF878
:104B7000580160661020A066002020670020E066D3
:104B80000020606705A1E01D00F0A2F8DFF83C11ED
:104B9000200000F09DF82020A07110BD5254540058
:104BA000F8B504000D0016001F00DFF810010078B2
:104BB000002801D1FFF7C2FFDFF80001006984423D
:104BC00034D2EFF31181202080F31188002C22D001
:104BD000DFF8E800182202FB04F210448561DFF8D8
:104BE000DC00182202FB04F21044C661DFF8CC009E
:104BF000182202FB04F21044076200202F4A1823F7
:104C000003FB04F31A44906200202C4A182303FB90
:104C100004F31A445062069A284B1820444303EBCD
:104C20000400C26281F31188002001E05FF0FF30D0
:104C3000F2BDF8B504000D0016001F001F480078F3
:104C4000002801D1FFF77AFF1C484069844231D225
:104C5000EFF31181202080F31188002C1FD017481A
:104C6000182202FB04F2104405661448182202FBC5
:104C700004F2104446661148182202FB04F2104464
:104C8000876600200D4A182303FB04F31A441067BB
:104C900000200A4A182303FB04F31A44D066069A3C
:104CA000064B1820444303EB0400426781F311884C
:104CB000002001E05FF0FF30F2BD00002C48012031
:104CC000AC6A00084C3D0120604A0120E06A0008FF
:104CD0005FEA000C80EA01039B0715D1830706D029
:104CE00011F8013B00F8013BB3B18307F8D10A6822
:104CF000B2F1013323EA020313F0803F02BF40F810
:104D0000042B51F8042FF3E711F8013B00F8013BA5
:104D100013B111F8013BF9E7604670471EB400215A
:104D2000694600220023002481E81C00DFF83C11C2
:104D300009680968C1F30D41091F0091DFF83011BE
:104D4000096809680291DFF828110968096889680B
:104D50000191DFF818110968C968DFF810211160A6
:104D6000694691E81C0080E81C0017BC7047DFF81A
:104D7000FC0000680068002824D4DFF8F000006818
:104D80000068C0051ED5DFF8E80000688068401C98
:104D9000DFF8DC1009688860DFF8D40000688068FC
:104DA000012806D1DFF8C4000068DFF8C4100968E4
:104DB0000860DFF8B8000068DFF8B41009684860E0
:104DC00001204DE0DFF8A40000680068002824D42A
:104DD000DFF898000068006880051ED5DFF88C00B9
:104DE00000680068C00518D4DFF880000068DFF8AC
:104DF0008010096808600020DFF8741009684860B6
:104E00000120DFF86C1009688860DFF86000006836
:104E1000C068DFF85810086021E0DFF85000006833
:104E2000006800281BD4DFF8440000680068800593
:104E300015D4DFF8380000680068C0050FD4DFF82B
:104E4000300000688068401CDFF824100968886022
:104E5000DFF818000068C068DFF810100860002054
:104E60007047DFF81010086070470000C44A012046
:104E7000C84A01201490024080B54848006850F4A8
:104E80007000464908604648006850F001004449F7
:104E900008600020434908604148016842480140D9
:104EA0003F4801604148424908603D48006830F48D
:104EB00080203B49086000203E49086000F005F86A
:104EC0005FF000603C49086001BD82B000200190A5
:104ED000002000903248006850F48030304908606B
:104EE0002F48006810F4003000900198401C019099
:104EF0000098002803D10198B0F5A04FF0D12848C0
:104F00000068800302D50120009001E0002000909D
:104F1000009801283ED12948006850F08050274968
:104F200008602748006850F44040254908601D4843
:104F300000681C4908601B48006850F4004019498B
:104F400008601848006850F4A050164908601D48D1
:104F5000174908601248006850F0807010490860D6
:104F60000F4800688001FBD540F2057016490860C3
:104F70000C480068800880000A49086009480068F9
:104F800050F00200074908600648006810F00C0065
:104F90000828F9D102B070470000000088ED00E059
:104FA0000038024008380240FFFFF6FE10300024AF
:104FB000043802400C38024008ED00E0403802405E
:104FC0000070004008604008003C024080B586B098
:104FD00000F05FF8FCF711F9012004900020039025
:104FE0004FF4A07002903B4801900F2000900F23D7
:104FF000394A00210FF27D00FCF7EAFE8DF814001B
:1050000005AA36490F20FCF7EEFF0120049000208E
:1050100003904FF48070029031480190012000907D
:105020000123304A00213048FCF7D2FE8DF81400ED
:1050300005AA2E490120FCF7D6FF0120049000208C
:1050400003904FF480700290294801901D20009039
:105050001D23284A00212848FCF7BAFE8DF81400C9
:1050600005AA26491D20FCF7BEFF0020FCF705FF1E
:1050700007B000BD80B52248006890F004002049C8
:1050800008604FF4FA73002200210020FCF76EFE46
:10509000F1E7E0B51B48006850F08000194908604E
:1050A00001208DF8040000208DF8060000208DF806
:1050B000070003208DF805000C2000906946124877
:1050C000FBF734FF1148006850F00C000F490860EE
:1050D00007BD000000100010FC140010886A0008D2
:1050E00000190010FC1C0010295A0008D46900089F
:1050F000001D0010FC200010795A0008386A0008D2
:10510000141C024030380240001C024014100240BF
:1051100010B50446AFF30080204600F005F80446C1
:10512000AFF30080204610BD7CB500F10F06F608F5
:10513000F600B04240D2082E04D2082602E0083021
:1051400000F047F8DFF804512C68210005D1002059
:1051500007E00268B24221D2011D08680028F8D198
:105160002068291D0A68824222D01368B34238BFE2
:10517000111DF7D312E093190B60801B54685C601B
:105180000B6818601660096800291DBF4868002870
:10519000081D0020286002F1080076BD61B10A6890
:1051A0001068A0F10803B342E5D250680860EAE74E
:1051B00000F04EF80028C2D1002076BD10B50400E2
:1051C00006D0AFF30080204600F003F8AFF3008074
:1051D00010BD002800D1704750B4A0F10802136838
:1051E000072B2BD913F0070F28D1184C616809B190
:1051F0008A4202D25160626013E0486800B3904274
:1052000038BF0146F9D31BE0964203D11B180B604F
:105210000A4606E0486810B1134498420ED3506025
:105220004A60506850B11368D118814206D10021FC
:1052300021600168CB1813604068506050BC704713
:1052400008680E18B242DFD250BC7047784A01207D
:105250000749086808B1002070470648C008C00028
:1052600008600549C908C900091A0160704700BFF4
:10527000F84A0120174B01201053012000B58FB0D0
:105280004648006850F40010444908604FF47A70B2
:1052900004905FF0606000904020039000200B902D
:1052A00003200C903E48029000200D904FF40050D7
:1052B00008904FF4806006904FF480700990394850
:1052C000019000200E904FF40060079000200590A0
:1052D0005FF400300A9069463348FFF7CDF90022A9
:1052E00010213148FFF722FA01212F48FFF7EEF98C
:1052F0000FB000BDE0B52D48006850F010002B49FC
:1053000008600020ADF808000020ADF80200BF20C2
:1053100001900020ADF8000069462548FFF744F9E8
:1053200020212348FFF79EF901212148FFF77EF94C
:1053300007BD00B587B01D48006850F000501B49FC
:1053400008601648006850F0010014490860032006
:105350008DF8040002208DF80700102000906946A7
:105360001448FBF7E3FD0020059000200490042082
:1053700002900020039002A9002000F01DF8FFF722
:10538000B9FFFFF77BFF0121002000F02DF801217C
:10539000002000F03FF807B000BD000030380240A8
:1053A000000000200874004088600240403802403D
:1053B000001000400000024010B400230024214AE5
:1053C000136840F6FE72824093430C684A681443A7
:1053D0008A681443C9680C4314FA00F018430300A8
:1053E0001848036010BC7047C9B2002908D015499D
:1053F0000968012212FA00F008431249086008E027
:1054000010490968012212FA00F031EA00000D4942
:1054100008607047C9B2002909D00A4909684FF4E9
:10542000805212FA00F008430649086009E0054975
:1054300009684FF4805212FA00F031EA0000014985
:105440000860704700740040122008802C487047A4
:10545000042008802B48704780B50A00C0B200289D
:1054600004D129492948FDF71DFE03E026492848B3
:10547000FDF718FE244802BD80B50A0022492548E0
:10548000FDF710FE204802BD80B51A20088000F00C
:1054900022F8214802BD80B50A00C0B2002804D11C
:1054A00019491E48FDF7FEFD03E017491B48FDF7AB
:1054B000F9FD154802BD80B50A00C0B2002804D12C
:1054C00011491748FDF7EEFD03E00F491448FDF7B9
:1054D000E9FD0D4802BD10B51248006812490C687C
:1054E000124909680818002808D00822104900F05D
:1054F00023F804220F49200000F01EF810BD000020
:10550000140A0020540A00202C470120A867000834
:10551000CC670008106A0008C8090020B86A0008B3
:10552000686A0008107AFF1F147AFF1F187AFF1F9D
:10553000CA090020DA09002030B40023002317E054
:105540000400240F3734DBB201F8134009E00400F3
:10555000240F0A2CF4D20400240F3034DBB201F8FB
:10556000134000010024DBB201EB43056C705B1CAF
:105570001C001500E4B2EDB2AC42E8D330BC704779
:105580002DE9F04784B05FF000095FF0000A5FF09A
:10559000000800206846FFF7C1FB0099019F032225
:1055A00089B20320FEF7D0F80500002D35D0029E09
:1055B0005FF000092C0029E040F2F452B2EB09023E
:1055C00007EB0901606800EB0A07380000F064F897
:1055D000F668B768A9F2F45010EB08080AF2F45A1A
:1055E000BAEB0909CA465FF0000919EB080040F25E
:1055F000F5518842E0D2424607EB090160688244D7
:10560000504600F049F818EB09092468002C04D032
:10561000B4F80A805FF0000AE7E7029E002004E089
:105620005FF000413160F668401C194909688968DB
:105630008842F5D30020164909688860134800683D
:10564000000605D580201149086000201149086036
:10565000280004B0BDE8F08738B505002800FFF742
:105660008FFF0400002C02D15FF0FF300CE0290016
:1056700020002A69904705006DB2002D02D020005D
:10568000FEF791F9280040B232BD000014900240AC
:10569000C84A01200890024062B38B0708D0521E0E
:1056A00011F8013B00F8013B00F024808B07F6D194
:1056B000830740F0208000BF103A07D330B4B1E830
:1056C0003810103AA0E83810F9D230BC530724BF84
:1056D000B1E80810A0E8081044BF51F8043B40F8B6
:1056E000043BD20724BF31F8022B20F8022B44BF21
:1056F0000B7803707047121F17D35B0009D151F864
:10570000043B20F8023B1B0C121F20F8023BF6D290
:105710000BE051F8043B00F8013B1B0A20F8023B68
:105720001B0C121F00F8013BF3D238BF121D521E92
:1057300024BF11F8013B00F8013BF8D87047000086
:10574000000001000200010003000100020001004E
:10575000040001000200010003000100020001003A
:105760000500010002000100030001000200010029
:10577000040001000200010003000100020001001A
:105780000600010002000100030001000200010008
:1057900004000100020001000300010002000100FA
:1057A00005000100020001000300010002000100E9
:1057B00004000100020001000300010002000100DA
:1057C00007000100020001000300010002000100C7
:1057D00004000100020001000300010002000100BA
:1057E00005000100020001000300010002000100A9
:1057F000040001000200010003000100020001009A
:105800000600010002000100030001000200010087
:105810000400010002000100030001000200010079
:105820000500010002000100030001000200010068
:105830000400010002000100030001000200010059
:10584000034AC26000220260002242608160704709
:10585000580A00202DE9F04104000E001500002731
:10586000A1682068091A60684118A94205D2A06899
:105870002568451B60684519FFE7A0682168A26894
:10588000521E1140401AA84206D2A0682768A1689B
:10589000491E0F40C71B00E02F00E0682168A26886
:1058A000521E114000EB01083A0031004046FFF75C
:1058B000F3FEEA1B06EB0701E6683000FFF7ECFE9B
:1058C0002068281820602800BDE8F081F8B50400A1
:1058D0000E00150021686068091AA94203D22068E9
:1058E0006568451BFFE7A0686168A268521E114009
:1058F000401AA84206D2A0686768A168491E0F40F6
:10590000C71B00E02F00E0686168A268521E1140CA
:1059100001443A003000FFF7BFFEEA1BE1683E4455
:105920003000FFF7B9FE6068281860602800F2BDFB
:10593000010008684968401A7047000000B583B04C
:105940002F48006850F010002D49086001208DF8A4
:10595000040000208DF806001C20009001208DF826
:10596000070002208DF8050069462648FBF7DEFA9D
:105970002548006850F004002349086007BD80B541
:105980005FF480312148FFF75BFFFEF7C4FDFFF7AE
:10599000D0FC00200090002300221D490020FFF7CA
:1059A000FFF800200090002300221A490020FFF792
:1059B00040F9FFF7C3FF01BD00B587B0FFF7DFFF78
:1059C000C020FCF764F8FBF785FB01200490002061
:1059D00003904FF4C07002900F4801900020009097
:1059E00000230E4A00210E48FCF7F2F905AA0D49E2
:1059F0000020FCF7F8FAFBF7DFFBFEE700000000F1
:105A0000303802400010024014100240504A012079
:105A1000D06A0008D86A0008000A0010FC0F0010C5
:105A2000CD4F0008946A000810B582B00020FEF740
:105A3000B3FF2C4908606A4600212A480068FEF737
:105A4000D3FFFCF701F904002748007801280FD1A3
:105A50002648006890F0040024490860002022498C
:105A600008704FF40062224801682248FFF7F2FEF6
:105A70002000FCF7EDF8DEE738B5002400F040F830
:105A800001201D4908700023012200210020FCF79D
:105A90006DF91848FFF74CFFB0F5805FF9D34FF46C
:105AA000805216491348FFF711FF0400A4B2002CDE
:105AB000EFD0114800780128EBD1FCF7C5F80500BC
:105AC00000200D4908700948006890F0100007494F
:105AD0000860210089B2094800F01CF82800FCF792
